:100000000C9462000C948A000C948A000C948A0070
:100010000C948A000C948A000C948A000C948A0038
:100020000C948A000C9435010C948A000C948A007C
:100030000C948A000C948A000C948A000C948A0018
:100040000C9426070C948A000C94AA080C948A003D
:100050000C948A000C948A000C948A000C948A00F8
:100060000C948A000C948A000000000024002700F1
:100070002A0000000000250028002B0000000000DE
:1000800023002600290004040404040404040202DA
:100090000202020203030303030301020408102007
:1000A0004080010204081020010204081020000012
:1000B0000007000201000003040600000000000029
:1000C00000003B0A11241FBECFEFD4E0DEBFCDBF3E
:1000D00011E0A0E0B1E0E2EEF6E102C005900D9281
:1000E000AE3CB107D9F712E0AEECB1E001C01D9211
:1000F000AD38B107E1F710E0C4ECD0E004C02297BE
:10010000FE010E946B0BC23CD107C9F70E941F077A
:100110000C946F0B0C9400000F931F938B019C01A8
:10012000809170008E7F809370008091B0008C7FF2
:100130008093B0008091B100877F8093B10080915F
:10014000B6008F7D8093B600809170008D7F809384
:1001500070008091B10084608093B1008091B10003
:100160008C7F8093B10086E090E09093DA018093D9
:10017000D901011511052105310569F481E090E0EF
:10018000A0E0B0E08093CE019093CF01A093D00186
:10019000B093D10108C00093CE011093CF012093FA
:1001A000D0013093D1015093D3014093D2011F91DC
:1001B0000F9108951092D4011092D5011092D6019A
:1001C0001092D7011092D8018091D9019091DA0153
:1001D0008093B200E0E7F0E0808181608083089541
:1001E000E0E7F0E080818E7F808308958091D401E4
:1001F0009091D501A091D601B091D7010196A11D92
:10020000B11D8093D4019093D501A093D601B093F2
:10021000D7012091D4013091D5014091D601509160
:10022000D7018091CE019091CF01A091D001B091E2
:10023000D101281739074A075B07B0F08091D80130
:10024000882391F481E08093D8011092D401109218
:10025000D5011092D6011092D701E091D201F09110
:10026000D30109951092D80108951F920F920FB6ED
:100270000F9211242F933F934F935F936F937F932C
:100280008F939F93AF93BF93EF93FF938091D90187
:100290009091DA018093B2000E94F600FF91EF91F5
:1002A000BF91AF919F918F917F916F915F914F918E
:1002B0003F912F910F900FBE0F901F901895682FB0
:1002C00085E00E940E08089586E060E00E940E0816
:1002D00008950F931F93CF93DF93EC0187E00E9463
:1002E0005B089093EC018093EB0184E06C2F0E94FB
:1002F0000E0883E06091E9010E940E0820E030E0E2
:100300008091E9019091EA01892B11F421E030E01C
:100310003093EA012093E9018091E5019091E60193
:10032000A091E701B091E8018F3F2FE3920720E011
:10033000A20720E0B20714F08FEF9FE30E94A60708
:100340002091DF013091E0014091E1015091E20103
:100350002097B9F0DA01C9010196A11DB11D809362
:10036000DF019093E001A093E101B093E201815B92
:100370009440A040B0401CF12F53364040405040C4
:1003800016C0DA01C9010197A109B1098093DF0103
:100390009093E001A093E101B093E20180579E4F5A
:1003A000AF4FBF4F64F4215C394F4F4F5F4F2093E5
:1003B000DF013093E0014093E1015093E2010091AD
:1003C000EB011091EC0187E00E945B080817190708
:1003D000C9F08091EB019091EC01892B49F0CD2B74
:1003E00039F18091DF019091E0018151934006C085
:1003F000CD2B21F18091DF019091E0019093E401F8
:100400008093E30140E050E02091E3013091E4016A
:1004100037FF03C0309521953F4F2131310514F44A
:1004200041E050E0CA01DF91CF911F910F910895F3
:100430008091DF019091E0010197E0CF8091DF0191
:100440009091E00182519340D9CF2F923F924F92E9
:100450005F926F927F928F929F92AF92BF92CF9254
:10046000DF92EF92FF920F931F93DF93CF93CDB75D
:10047000DEB72C970FB6F894DEBF0FBECDBF7B0161
:100480008C014A018091E3019091E401AA2797FD34
:10049000A095BA2F2091DF013091E0014091E10158
:1004A0005091E201281B390B4A0B5B0B2093DF01B3
:1004B0003093E0014093E1015093E2011092E40196
:1004C0001092E3011A8219822E153F054007510749
:1004D00024F481E090E09A83898357016801A21A8D
:1004E000B30AC40AD50AD7FE08C0D094C094B09409
:1004F000A094A11CB11CC11CD11C90E2A91693E0D0
:10050000B90690E0C90690E0D90664F5E216F30654
:10051000040715073CF4C801B701605C794F8F4FA1
:100520009F4F06C0C801B70160547640804090409C
:10053000E0E0F0E0A981BA81AB2B11F4E1E0F0E05A
:10054000FA83E9835B016C01A21AB30AC40AD50AD3
:10055000D7FE08C0D094C094B094A094A11CB11C44
:10056000C11CD11C9401442737FD4095542F64E6EB
:1005700070E080E090E0621B730B840B950B23E12D
:1005800030E040E050E00E94E60AFB01EC59FF4FEA
:10059000FC87EB8780ED97E0A0E0B0E08093E50179
:1005A0009093E601A093E701B093E801A6019501BD
:1005B00055954795379527952B833C834D835E83CF
:1005C000350146011F01442437FC4094542C80ED32
:1005D00097E08E1B9F0B9C01442737FD4095542FBD
:1005E0002F83388749875A8739C089819A810E9429
:1005F0006901E090E501F090E6010091E7011091BA
:10060000E801C801B701621973098409950922E359
:1006100030E040E050E00E94E60A2F8138854985AD
:100620005A850E943A0BC901DA010097A105B1056C
:1006300021F481E090E0A0E0B0E008946108710846
:1006400081089108E81AF90A0A0B1B0BE092E501F0
:10065000F092E6010093E7011093E8018B819C8101
:10066000AD81BE8186159705A805B90574F4809102
:10067000E5019091E601A091E701B091E80128160B
:1006800039064A065B060CF4B0CF84017301C5013C
:10069000861997095C01CC24B7FCC094DC2C09C0F6
:1006A00089819A810E9469010894E108F108010991
:1006B0001109AE14BF04C006D10694F338C0898175
:1006C0009A810E946901A090E501B090E601C09076
:1006D000E701D090E801C601B501621973098409E8
:1006E000950922E330E040E050E00E94E60AA401D0
:1006F00093010E943A0BC901DA010097A105B105E7
:1007000021F481E090E0A0E0B0E0A80EB91ECA1E7E
:10071000DB1EA092E501B092E601C092E701D09203
:10072000E8010894E108F1080109110910C0AB853E
:10073000BC851D01442437FC4094542C80ED97E087
:100740008A1B9B0B3C01882477FC8094982C1E14F8
:100750001F04100611060CF4B2CF2C960FB6F894B5
:10076000DEBF0FBECDBFCF91DF911F910F91FF90E4
:10077000EF90DF90CF90BF90AF909F908F907F9041
:100780006F905F904F903F902F90089544E650E017
:100790000E94250208952F923F924F925F926F928E
:1007A0007F928F929F92AF92BF92CF92DF92EF9201
:1007B000FF920F931F93CF93DF938AE792E06EE34C
:1007C00071E00E94AC0A84EF91E0A0E0B0E0809379
:1007D000E5019093E601A093E701B093E80187E07B
:1007E0000E945B088C010E946E073B014C0184E66D
:1007F00090E09093E4018093E301CC24DD24AA24CB
:10080000BB24EE24FF2491E1292E93E0392E412CC4
:10081000512C7EC01092DF011092E0011092E10194
:100820001092E201C6010E9469010894E11CF11CCA
:100830008AE9E81684E0F8064CF080E090E0CD28E4
:1008400011F481E090E06C01EE24FF240E946E0719
:10085000A40193012053384F4F4F5F4F261737079E
:100860004807590710F50894A11CB11C80E090E0DE
:100870000E945F0188EE93E0A89EB001A99E700DD2
:10088000B89E700D1124882777FD8095982F0E94BF
:100890007C0781E090E00E945F010E946E073B01AF
:1008A0004C0187E00E945B08EC018E0187E00E940A
:1008B0005B08EC018017910709F4ACCFC114D10497
:1008C00009F44FC00115110549F41092DF0110928F
:1008D000E0011092E1011092E20108C02092DF01D4
:1008E0003092E0014092E1015092E2011092E40165
:1008F0001092E3016091DF017091E0018091E101CC
:100900009091E2016E5A7C4F8F4F9F4F0E94C60319
:100910008091E3019091E401419744F662E370E035
:1009200080E090E00E947C0780E090E00E945F0100
:100930008AE792E065E571E00E94DB0ADF91CF91E2
:100940001F910F91FF90EF90DF90CF90BF90AF90ED
:100950009F908F907F906F905F904F903F902F90DF
:1009600008950115110509F0B0CFB8CF8AE792E0DC
:100970006BE571E00E94DB0A0E94CB0360E070E04F
:1009800080E090E00E94C6030895CF92DF92EF923C
:10099000FF920F931F930091EB011091EC0187E000
:1009A0000E945B0808171907E9F1C090DF01D09099
:1009B000E001E090E101F090E20181E090E00E942E
:1009C0005F010E94CB0362E370E080E090E00E9450
:1009D0007C0780E090E00E945F0168EB7BE080E0B4
:1009E00090E00E947C070091EB011091EC0187E000
:1009F0000E945B080817190701F781E090E00E9448
:100A00005F01B601882777FD8095982F0E94C60365
:100A100062E370E080E090E00E947C0780E090E07C
:100A20000E945F011F910F91FF90EF90DF90CF9098
:100A30000895AF92BF92CF92DF92EF92FF920F9301
:100A40001F935B016C01161617061806190694F41D
:100A50000E946E077B018C01EA0CFB1C0C1D1D1D06
:100A600002C00E94C5040E946E076E157F058007B4
:100A70009107B8F31F910F91FF90EF90DF90CF9007
:100A8000BF90AF9008950F931F938C0182E061E0B7
:100A90000E940E086AE070E080E090E00E947C070F
:100AA0008AE792E0B8010E94AC0A6AE070E080E058
:100AB00090E00E947C0782E060E00E940E081F9197
:100AC0000F910895CF93DF93C0E0D0E08DE061E017
:100AD0000E940E086AEF70E080E090E00E947C07C0
:100AE0008DE060E00E940E086AEF70E080E090E028
:100AF0000E947C072196C330D10541F7DF91CF9149
:100B000008958AE792E06EE671E00E94DB0A109297
:100B1000DF011092E0011092E1011092E2011092C7
:100B2000E4011092E30180ED97E0A0E0B0E0809353
:100B3000E5019093E601A093E701B093E80183E01B
:100B400061E00E94EE0784E061E00E94EE0785E02C
:100B500061E00E94EE0787E060E00E94EE0781E01E
:100B600090E00E945F0187E00E945B089093EC0197
:100B70008093EB010E94B60462E370E080E090E0B5
:100B80000E947C0780E090E00E945F01089582E06F
:100B900061E00E94EE0782E060E00E940E08089586
:100BA000EF92FF920F931F930E946E077B018C01BF
:100BB00084E690E0A0E0B0E0E80EF91E0A1F1B1FDB
:100BC00007C00E946E07E616F7060807190778F0B7
:100BD0008AE792E00E94E009823098F308C08AE731
:100BE00092E00E94E009882311F415E422C08AE70C
:100BF00092E00E94F4098D34910589F78AE792E02A
:100C00000E94F409182F823749F0823639F089376B
:100C100029F08B3419F08E3609F015E48AE792E05A
:100C200064E871E00E94AC0A8AE792E0612F0E94BA
:100C3000CB0A812F1F910F91FF90EF900895DF93C2
:100C4000CF9300D00F92CDB7DEB7805D89836A83E2
:100C50001B828AE792E00E941C0ACE0101960E9444
:100C600043050F900F900F90CF91DF91089564E5A9
:100C70000E941F060E94D0050895AF92BF92CF92A6
:100C8000DF92EF92FF920F931F93CF93DF93EC01CC
:100C90000E946E075B016C0186E061E00E940E0815
:100CA00064EF71E080E090E044E651E00E948C0047
:100CB0000E94DA003CE2E32E31E0F32E012D112DEB
:100CC000EA0CFB1C0C1D1D1D0E946E076E157F0596
:100CD00080079107C8F3BE01882777FD8095982F7C
:100CE0000E94C60328E5E22E22E0F22E012D112DEE
:100CF000EA0CFB1C0C1D1D1D0E946E076E157F0566
:100D000080079107C8F30E94F0008091E301909161
:100D1000E401419714F00E94CB03DF91CF911F9122
:100D20000F91FF90EF90DF90CF90BF90AF9008951C
:100D30001F9381E090E062E50E941F060E94D005AB
:100D4000182F823721F0823611F0893721F56AEFAA
:100D500070E080E090E00E94190581E090E00E9440
:100D60005F01123719F487E390E009C0193719F4CD
:100D70008DEC90E004C0123611F483E691E00E94FD
:100D80003D060E946E076093DB017093DC01809347
:100D9000DD019093DE010E946E072091DB0130910E
:100DA000DC014091DD015091DE0128513C4F4F4F55
:100DB0005F4F261737074807590720F480E090E077
:100DC0000E945F010E94C5041F9108958AE792E086
:100DD00040E855E260E070E00E94E7088AE792E0B0
:100DE0000E94B40A8AE792E067E871E00E94DB0A99
:100DF0000E94C7058DE061E00E94EE0786E061E099
:100E00000E94EE070E9481058091E3019091E40128
:100E1000419714F00E94CB038AE792E066E971E003
:100E20000E94DB0A81E090E00E9437068AE792E0A8
:100E300064EB71E00E94DB0A0E94620508950E9443
:100E4000B4070E94E6060E949806FDCF1F920F92FB
:100E50000FB60F9211242F933F938F939F93AF93CD
:100E6000BF938091F1019091F201A091F301B091B3
:100E7000F4013091F5010196A11DB11D232F2D5FC5
:100E80002D3720F02D570196A11DB11D2093F5019E
:100E90008093F1019093F201A093F301B093F401D8
:100EA0008091ED019091EE01A091EF01B091F001E0
:100EB0000196A11DB11D8093ED019093EE01A093C9
:100EC000EF01B093F001BF91AF919F918F913F914E
:100ED0002F910F900FBE0F901F9018958FB7F89419
:100EE0002091F1013091F2014091F3015091F40110
:100EF0008FBFB901CA010895EF92FF920F931F931C
:100F00007B018C018FB7F8944091F1015091F2016F
:100F10006091F3017091F4018FBF2FB7F894809125
:100F2000F1019091F201A091F301B091F4012FBF72
:100F3000841B950BA60BB70BE816F9060A071B07CF
:100F400060F71F910F91FF90EF900895019759F06E
:100F5000FC01EE0FFF1FEE0FFF1F32978FB7F894C3
:100F60003197F1F78FBF0895789484B5826084BD7E
:100F700084B5816084BD85B5826085BD85B581609D
:100F800085BDEEE6F0E0808181608083E1E8F0E0FD
:100F9000808182608083808181608083E0E8F0E0EE
:100FA000808181608083E1EBF0E0808184608083D8
:100FB000E0EBF0E0808181608083EAE7F0E080810F
:100FC000846080838081826080838081816080836F
:100FD0008081806880831092C1000895282F30E0BE
:100FE000C90186569F4FFC0194912A573F4FF90142
:100FF0008491882391F0E82FF0E0EE0FFF1FE8596D
:10100000FF4FA591B491662329F48C919095892383
:101010008C9308958C91892B8C930895482F50E0E0
:10102000CA0182559F4FFC012491CA0186569F4FE9
:10103000FC0194914A575F4FFA0134913323D1F167
:10104000222331F1233021F4809180008F7705C075
:10105000243031F4809180008F7D8093800018C00F
:10106000213019F484B58F7704C0223021F484B57F
:101070008F7D84BD0DC0263021F48091B0008F7724
:1010800005C0273029F48091B0008F7D8093B00097
:10109000E32FF0E0EE0FFF1FEE58FF4FA591B49144
:1010A000662329F48C91909589238C9308958C91D3
:1010B000892B8C930895682F70E0CB0182559F4F48
:1010C000FC012491CB0186569F4FFC0144916A5745
:1010D0007F4FFB019491992319F420E030E038C050
:1010E000222331F1233021F4809180008F7705C0D5
:1010F000243031F4809180008F7D8093800018C06F
:10110000213019F484B58F7704C0223021F484B5DE
:101110008F7D84BD0DC0263021F48091B0008F7783
:1011200005C0273029F48091B0008F7D8093B000F6
:10113000892F90E0880F991F84589F4FFC01A5913B
:10114000B4918C9120E030E0842311F021E030E074
:10115000C90108951F920F920FB60F9211242F9379
:101160003F934F935F936F937F938F939F93AF932F
:10117000BF93EF93FF934091C600E0917602F09108
:101180007702CF01019660E870E00E94050B9C0198
:1011900080917802909179022817390739F0EA5046
:1011A000FE4F40833093770220937602FF91EF91B8
:1011B000BF91AF919F918F917F916F915F914F916F
:1011C0003F912F910F900FBE0F901F9018955F9237
:1011D0006F927F928F929F92AF92BF92CF92DF9247
:1011E000EF92FF920F931F93CF93DF93EC013A019D
:1011F0004B01413482E458078FE0680780E07807AC
:101200000CF07FC060E874E88EE190E0A4019301E7
:101210000E943A0B2150304040405040CA01B90171
:1012200022E030E040E050E00E943A0B59016A01B0
:10123000A6019501209530954095509594E0220F98
:10124000331F441F551F9A95D1F760E074E284EF75
:1012500090E00E943A0BCA01B9012FEF30E040E064
:1012600050E00E94E60AA40193010E943A0BC901D2
:1012700081509F4F181619061CF4522E5A9403C021
:1012800055245394521A60E079E08DE390E0A40174
:1012900093010E943A0B2150304040405040CA0117
:1012A000B90122E030E040E050E00E943A0B209586
:1012B00030954095509583E0220F331F441F551FF2
:1012C0008A95D1F760E074E284EF90E00E943A0BD7
:1012D000CA01B9012FEF30E040E050E00E94E60A79
:1012E000A40193010E943A0BC90181509F4F181627
:1012F00019061CF4822F815002C081E0821B8515E3
:1013000000F5E885F98581E090E00A8802C0880F41
:10131000991F0A94E2F7808360E079E08DE390E022
:10132000A40193010E943A0B2150304040405040AC
:10133000CA01B90122E030E040E050E00E943A0BDF
:1013400004C0E885F98510829501EC81FD81308328
:10135000EE81FF812083EA85FB85208141E050E01A
:10136000CA010E8402C0880F991F0A94E2F7282B45
:101370002083EA85FB852081CA010F8402C0880F83
:10138000991F0A94E2F7282B2083EA85FB85808148
:10139000088802C0440F551F0A94E2F7842B80830B
:1013A000DF91CF911F910F91FF90EF90DF90CF9041
:1013B000BF90AF909F908F907F906F905F900895B7
:1013C000DC011296ED91FC911397E058FF4F81914B
:1013D000919180589F4F20813181821B930B60E84F
:1013E00070E00E94050B0895CF93DF93DC01129605
:1013F000ED91FC911397EF01CE57DF4F4881598152
:10140000E058FF4F80819181E058F04084179507A4
:1014100019F42FEF3FEF0CC0E40FF51F2081CA0134
:10142000019660E870E00E94050B9983888330E0A4
:10143000C901DF91CF910895DC011296ED91FC91E5
:101440001397EE57FF4F8081918192938293089575
:10145000FC01A085B18521898C9190E0022E02C00B
:10146000959587950A94E2F780FFF6CF0484F58579
:10147000E02D6083089588EC91E090937B02809347
:101480007A0286EF91E090937D0280937C0285EC56
:1014900090E090937F0280937E0284EC90E09093A2
:1014A00081028093800280EC90E09093830280938D
:1014B000820281EC90E0909385028093840286EC16
:1014C00090E0909387028093860284E08093880264
:1014D00083E08093890287E080938A0285E080938D
:1014E0008B0281E080938C0208950F931F93CF931A
:1014F000DF938C01EB0109C02196D801ED91FC919D
:101500000190F081E02DC801099568816623A1F75B
:10151000DF91CF911F910F910895EF92FF920F935A
:101520001F93CF93DF938C017B01EA010CC0D7019D
:101530006D917D01D801ED91FC910190F081E02D3C
:10154000C80109952197209791F7DF91CF911F91BD
:101550000F91FF90EF900895DC01ED91FC910280D6
:10156000F381E02D099508950F931F938C01DC0101
:10157000ED91FC910190F081E02D6DE00995D8018D
:10158000ED91FC910190F081E02DC8016AE0099590
:101590001F910F9108950F931F938C01DC01ED9122
:1015A000FC910190F081E02D0995C8010E94B40AD8
:1015B0001F910F9108950F931F938C010E94AC0A05
:1015C000C8010E94B40A1F910F910895629FD00133
:1015D000739FF001829FE00DF11D649FE00DF11DEE
:1015E000929FF00D839FF00D749FF00D659FF00D9D
:1015F0009927729FB00DE11DF91F639FB00DE11D8A
:10160000F91FBD01CF011124089597FB092E07266C
:101610000AD077FD04D049D006D000201AF4709586
:1016200061957F4F0895F6F7909581959F4F0895A6
:10163000A1E21A2EAA1BBB1BFD010DC0AA1FBB1FD6
:10164000EE1FFF1FA217B307E407F50720F0A21B48
:10165000B30BE40BF50B661F771F881F991F1A94B5
:1016600069F760957095809590959B01AC01BD01DF
:10167000CF01089597FB092E05260ED057FD04D003
:10168000D7DF0AD0001C38F450954095309521954D
:101690003F4F4F4F5F4F0895F6F7909580957095A7
:1016A00061957F4F8F4F9F4F0895AA1BBB1B51E140
:1016B00007C0AA1FBB1FA617B70710F0A61BB70BC2
:1016C000881F991F5A95A9F780959095BC01CD0167
:1016D0000895EE0FFF1F0590F491E02D0994F89402
:0216E000FFCF3A
:1016E200706F733A20002020706F735F6572726FA3
:1016F200723A20002020737465705F64656C6179B2
:101702003A20002020656E636F64657220737461F5
:1017120074653A200048494748004C4F5700636FB0
:101722007272656374696E6720706F736974696F32
:101732006E2E2E2E00646F6E652E00686F6D696EC0
:101742006720737465707065722E2E2E200073658B
:101752007474696E67207570207374657070657239
:101762002E2E2E003A20007374617274696E672007
:1017720075702E2E2E007265736574696E67207304
:10178200656E736F72207468726573686F6C6473D0
:101792002E2E2E00626C696E6B696E67204C45447A
:0E17A2002E2E2E0000000000280A750A8D0A67
:00000001FF
